:020000040800F2
:100000006018002001010008671A00086D19000837
:10001000651A000829040008851E00080000000079
:100020000000000000000000000000003B1B000872
:10003000C105000800000000891A00083D1B0008E7
:100040001B0100081B0100081B0100081B01000820
:100050001B0100081B0100081B0100081B01000810
:100060001B0100081B0100081B0100081B01000800
:100070001B0100081B0100081B0100081B010008F0
:100080001B0100081B0100081B0100081B010008E0
:100090001B0100081B0100081B0100081B010008D0
:1000A0001B0100081B0100081B0100081B010008C0
:1000B0001B0100081B0100081B0100081B010008B0
:1000C0001B0100081B0100081B0100081B010008A0
:1000D0009D1A0008791E00081B0100081B0100087A
:1000E000F90500081B0100081B010008DFF80CD00F
:1000F00000F03AF800480047C51E000860180020CC
:100100000648804706480047FEE7FEE7FEE7FEE7B1
:10011000FEE7FEE7FEE7FEE7FEE7FEE7B11B0008AD
:10012000ED000008202A04DB203A21FA02F0002129
:10013000704721FA02F3D040C2F1200291400843F7
:100140001946704740EA01039B0703D009E008C93C
:10015000121F08C0042AFAD203E011F8013B00F88C
:10016000013B521EF9D27047064C074D06E0E0688D
:1001700040F0010394E8070098471034AC42F6D3EE
:10018000FFF7B8FFFC2200081C23000810B5104C34
:10019000207858B1012815D16068401E606011D1E7
:1001A0000C488068BDE8104000F0E6BA094800F04D
:1001B000C1FA012804D1074800F0A2FA012802D0B0
:1001C0000220207010BD012020700348606010BD27
:1001D0000C000020CC000020FFFF0F0010B50448E9
:1001E00001F088FBBDE81040024800F0B9B90000FA
:1001F000F5030008190400082DE9F0476F490222B1
:100200006F4C0A70037804F10D09A4F11005082B56
:100210007DD2DFE803F0A504074FA586A7BC002127
:100220000120C7E0664D67A17435A81C2A7008221A
:100230006A70FFF787FF6878401CC5F8B40460480F
:1002400000F078FA00276E1C4FF00108012804D155
:100250005B4800F055FA012814D0D5F8B40487554E
:10026000D5F8B404401CC5F8B40400F80680D5F8ED
:10027000B404401CC5F8B404BDE8F04750487430DD
:1002800000F0D4B8D5F8B404227B49468255D5F89D
:10029000B404401CC5F8B404304405F2B445FFF77B
:1002A00051FF217B28680844286087552868401C36
:1002B0002860E1E750F8016F002745685EB105F15D
:1002C000006842484FF0000180454FF003000ED314
:1002D00000F096F80FE03A4800F02CFA012801D01F
:1002E0000127EEE7D4E9016808F10068E9E700F0CA
:1002F00087F8002F34D1B10AA80500D0491C05EBBE
:100300008120B04200D2491C4046491C00E027E051
:1003100001F0CAFB012802D0012104204AE000219B
:10032000FBE72749D0F8012010394A61D0F80520B1
:100330000A61D0F809208A61427B00F10E01227324
:100340004846FFF7FFFE1E4800F052FA012802D08F
:10035000012105202EE00021052000F051F82C603D
:10036000BDE8F087D0F80120D0F80510AA6000F1B0
:100370000902D0F8B4341248083B103800F001FAF2
:10038000012802D00121062014E00021FBE70C48DF
:1003900000F0D0F901280BD1094800F0B1F901288B
:1003A00006D10021072000F02BF8A06800F0E4F946
:1003B00001210720BDE8F04700F022B80C00002022
:1003C000CC000020312E302E302E3000902D000831
:1003D00010B5FFF7DBFE064C94F8C404012806D1E3
:1003E00004F10C00FFF708FF002084F8C40410BDDE
:1003F000F80500200146014800F04EB8F80500203D
:10040000044A10700120C2F8B4045170104600F084
:100410000DB80000400100208AB20146014801F0F9
:1004200079BA00007C000020FEE70000F8B5054620
:100430000020174C8DF80000EB202070611C2A462C
:10044000012000F0BEF8461CA11905F2B4420220BA
:1004500000F0B7F80644A1196A1CD5F8B40400F0FE
:10046000B0F80644284600F097F88DF80000A1196E
:100470006A46012000F0A5F8811930206054054833
:10048000491C0268002A01D020469047F8BD0000B0
:10049000E00A00201C00002070B500220446EB2971
:1004A0000FD0607AEF2914D0EF2816D00D462378AC
:1004B00002210120062B0FD2DFE803F013191D30B3
:1004C0003E4C20780D460028F1D0204601F0DDFAA0
:1004D000EDE7EF2801D0617270BDEF31CDB26272ED
:1004E000E5E7EB2DF8D1207084F8C41470BD2573B6
:1004F0002170626070BD616861B1D4F8C0044FF0D2
:10050000030150EA0520C4F8C00421706260F1D1F3
:1005100004200FE0C4F8C054606070BD616804F14D
:100520000D000D546068401C6060D4F8C01488420F
:1005300008D270BD207070BD04F10C0000F02CF8E2
:10054000A84202D12078401CF4E72046BDE8704064
:1005500001F09BBA302DEED184F8C404227070BD36
:10056000002801D001490860704700001C000020ED
:1005700030B54FF0FF330022064D07E0845C5C404D
:10058000E4B2521C55F8244084EA13238A42F5D37E
:10059000D84330BDFC1E000810B50178D0F8B43443
:1005A000EB31194401EB1321CAB2002104E04418D5
:1005B000491C64782244D2B28B42F8D8104610BD50
:1005C000704770B5002405462046EF2611E01378E9
:1005D000EB2B03D0302B01D0EF2B04D1401C01F8C2
:1005E000016B80B2EF3B401C521C01F8013B80B212
:1005F000641CAC42EBD370BD4FF4806000F0D6B900
:10060000FEE7000006490020C8610648016941F084
:1006100004010161016941F040010161704700007E
:10062000C00A002000200240064A0021D16106498C
:100630000A6942F002020A614861086940F040001C
:1006400008617047C00A002000200240044B0022CD
:10065000DA61044A136943F00103136101807047B2
:10066000C00A0020002002400E49C868C2060E4899
:1006700003D5C26942F00202C261CA68520703D5BB
:10068000C26942F00102C261CA69D20707D0C269D9
:1006900042F00402C261C86920F00100C861142060
:1006A000C860704700200240C00A002070B50546AF
:1006B00000F06CFA0646114C09E0681C07D025B121
:1006C00000F064FA801BA84201D9032070BDE068E5
:1006D000C007F2D1E068800601D52020E060E06824
:1006E000C00605D4E069C00702D1E068400703D521
:1006F000FFF7BAFF012070BD002070BD002002404E
:1007000010B5044601F0CEFB00280DD0D4E901104D
:1007100000F10060FFF72CFF0146054801602168E9
:100720000068814201D1012010BD002010BD0000F1
:100730002000002030B59FB00546782269460D485C
:1007400001F0CEF974216C4601A8FFF711FF009962
:10075000884204D1201D01F0A5FB012802D0002011
:100760001FB030BD7422211D2846FFF7EBFC01208D
:10077000F6E70000002C00084168006880F3088854
:1007800008472DE9F0411D461646044631B1E2689E
:10079000481E824207D00020BDE8F08120688068B2
:1007A00000F100606060E160A068401E81424FEA95
:1007B000C5700ED180B11A463146606801F09BF9D0
:1007C00007462A463146606801F095F9AD1C60681D
:1007D00009E008B1002708E01A463146606801F0D8
:1007E0008AF907466068284460603846D4E700000C
:1007F00030B59FB0044601F055FB002814D0742199
:100800002046FFF7B5FE00907422214601A8FFF7AD
:1008100099FC064D78240121284601F045F922462D
:100820006946284601F067F91FB030BD002C00086A
:1008300031B500F0ABF9044600F0A8F90099001BAF
:100840008842F9D338BD00002DE9F0470546264817
:100850000F460126017E01290FD001218146017634
:100860002868DFF888804CF25034022808D0A2466D
:100870002046FFF71BFFA8B131E00220BDE8F0875A
:100880002046FFF713FF08BB0120FFF7BBFE204601
:10089000FFF70CFFD8F81010064621F00401C8F845
:1008A00010101CE04FF0FF303860AC6811E02046BB
:1008B000FFF7BAFE5046FFF7F9FED8F81010060011
:1008C00021F00201C8F8101001D03C6007E004F5E7
:1008D0008064D5E9020100EB8120A042E7D8002125
:1008E00089F818103046C9E7C00A002000200240ED
:1008F0000348016941F08001016100207047000058
:10090000002002402DE9F05F07461C48884600247D
:10091000017E15461E46012909D001218146017636
:100920004CF2503A5046FFF7C1FE18B122E00220C7
:10093000BDE8F09F012F02D0022F00D00427D3463C
:10094000DFF83CA0220128463146FFF7EBFB81B2DD
:1009500008EB4400FFF77AFE5846FFF7A7FEDAF8E7
:10096000102022F00102CAF8102018B9641CE4B269
:10097000BC42E7D3002289F81820D9E7C00A00203A
:100980000020024005480169090605D50449416077
:100990000449416000207047012070470020024058
:1009A00023016745AB89EFCD70470000044910B5BE
:1009B0000A68024202D00860FFF7F6FF10BD00008F
:1009C000140401402DE9F84FDFF890A100220AF14C
:1009D000040B144601274FF00F090BF1040E00BF62
:1009E0000B6807FA04F52B40AB4274D1DFF870C1F5
:1009F0004E68A6EB0C0866452BD00DDC032E34D0D8
:100A000005DC36B3012E19D0022E2FD11BE0112E9A
:100A100016D0122E2AD119E0B8F5881F19D006DC9D
:100A2000B8F5803F15D0B8F5801F1FD111E0B8F59B
:100A3000001F0ED0B8F5041F18D10AE0CA6815E0EF
:100A4000CA68121D12E0CA6808320FE0CA680C3288
:100A50000CE08A682AB1012A4FF0080203D04561F0
:100A600004E0042202E0056100E00022FF2B01D82F
:100A7000064601E000F104064FEA840501D9A5F11C
:100A80002005D6F800C009FA05F82CEA080C02FA8D
:100A900005F54CEA050CC6F800C04D68ED0057D5C9
:100AA000304DAE6946F00106AE61AD6924F0030633
:100AB00005F0010500952C4D06EB050CDCF80850FF
:100AC000A6074FEA167809FA08F6B543274EB04252
:100AD00002D1002610E03BE0254EB04201D10126B4
:100AE0000AE0244EB04201D1022605E0224EB04277
:100AF00001D1032600E0042606FA08F62E43CCF8BE
:100B000008604D68DAF80060ED03554601D51E43D4
:100B100000E09E432E604D68DBF80060AD035D464B
:100B200001D51E4300E09E432E604D68DEF8006054
:100B3000ED02754601D51E4300E09E432E604D68D0
:100B4000AD020E4D2E6801D51E4300E09E432E607F
:100B5000641C102CFFF444AFBDE8F88F0004014082
:100B60000000111000100240000001400008014088
:100B7000000C014000100140001401400C04014031
:100B80000AB1016170470904FBE7000001480068F1
:100B9000704700001400002002480168491C0160F1
:100BA0007047000014000020074810B5016841F0AC
:100BB00010010160032000F07FF8002000F006F82B
:100BC00000F016F8002010BD0020024010B50446C9
:100BD00000F048F94FF47A71B0FBF1F000F05BFDE2
:100BE00000222146501E00F047F8002010BD0000F2
:100BF0001A4808B5816941F001018161806900F0FE
:100C000001000090032000F057F8002211466FF019
:100C10000B0000F031F8002211466FF00A0000F0DE
:100C20002BF8002211466FF0090000F025F8002291
:100C30001146501F00F020F800221146101F00F04E
:100C40001BF800221146901E00F016F80022BDE8A5
:100C500008401146501E00F00FB80000001002407E
:100C600000F01F02012191404009800000F1E020C6
:100C7000C0F8001170470000F0B40E4B1B680C4622
:100C8000C3F30223C3F10705042D00D90425191D60
:100C9000072901D2002300E0DB1E012606FA05F138
:100CA000491E214099409E40761E16403143F0BCBB
:100CB00000F0DABE0CED00E0064900F0070208681B
:100CC0004FF6FF03184040EA0220034A1043086031
:100CD000704700000CED00E00000FA052DE9F04738
:100CE000DFF8708105460E46D8F8000000F00700D6
:100CF000B0420CD2D8F8001021F007013143C8F8F7
:100D00000010D8F8000000F00700B04277D1287832
:100D1000514C800705D56068A96820F0F0000843B1
:100D200060602878C00759D06968012001290DD07A
:100D3000022929D05FF0020393FAA3F2B2FA82F2F9
:100D400042F02002520904D0226803E04FF400333D
:100D5000F2E7626A93FAA3F3B3FA83F303F01F0393
:100D6000984002424BD0606820F003000843606066
:100D7000FFF70CFF6968074641F2883001290DD062
:100D80000229814617D025E04FF00073D4E700BF59
:100D9000FFF7FCFEC11B494501D918E08146606898
:100DA000C0F381000128F3D118E000BFFFF7EEFE89
:100DB000C11B49450BD86068C0F381000228F5D1FA
:100DC0000CE000BFFFF7E2FEC11B494502D903203A
:100DD000BDE8F087606810F00C0FF3D1D8F8001070
:100DE000404601F00701B1420BD9016821F007012B
:100DF00031430160006800F00700B04201D00120DB
:100E0000E6E72878400705D56068E96820F4E060E7
:100E1000084360602878000706D56068296920F4D7
:100E2000605040EAC100606000F052F86168F02252
:100E300092FAA2F201F0F001B2FA82F2D140074A2E
:100E4000515CC840064908600020FFF7BFFE002043
:100E5000BEE700000020024000100240E21E000831
:100E600000000020014800687047000000000020DA
:100E700008480949006849684FF4E06292FAA2F212
:100E800001F4E061B2FA82F2D140044A515CC840F8
:100E9000704700000000002000100240F21E000811
:100EA00008480949006849684FF4605292FAA2F272
:100EB00001F46051B2FA82F2D140044A515CC84058
:100EC000704700000000002000100240F21E0008E1
:100ED00010B519A385B00FCB8DE80F001AA01B4BDE
:100EE000006804905A681A4802F00C0104291DD0C9
:100EF00008291BD14FF4701494FAA4F402F4701171
:100F0000B4FA84F4E140D2031DF8011010D55A68F8
:100F10004FF4003393FAA3F302F40032B3FA83F3ED
:100F2000DA4004AB9A5CB0FBF2F0484305B010BD68
:100F300008484843FAE700000203040506070809C9
:100F40000A0B0C0D0E0F10100102000000100240E1
:100F500000127A0000093D002DE9F84F04460078A0
:100F6000F74DC0074FF0010625D068687704C0F33D
:100F70008100012807D06868C0F3810002281BD1D6
:100F80006868C00318D597FAA7F0B0FA80F040F06F
:100F90002000400901D0286800E0686A97FAA7F1AC
:100FA000B1FA81F101F01F0106FA01F108425ED0A9
:100FB000606800287CD05AE06068B0F5803F0BD0B4
:100FC00010B1B0F5A02F11D0286820F4803028602F
:100FD000286820F4802002E0286840F480302860EF
:100FE000606828B3FFF7D2FD80460BE0286840F424
:100FF00080202860F0E700BFFFF7C8FDA0EB0800E5
:10100000642871D897FAA7F0B0FA80F040F0200079
:10101000400901D0286800E0686A97FAA7F1B1FAA0
:1010200081F101F01F0106FA01F10842E4D01EE04F
:10103000FFF7ACFD804605E0FFF7A8FDA0EB080038
:101040006428DED897FAA7F0B0FA80F040F02000CC
:10105000400901D0286800E0686A97FAA7F1B1FA60
:1010600081F101F01F0106FA01F10842E4D1207874
:10107000DFF8D08280074FF000094FF002075BD500
:1010800068684FF0F80B10F00C0F07D06868C0F3D9
:10109000810002281CD16868C00319D497FAA7F010
:1010A000B0FA80F040F02000400902D0286801E04A
:1010B0008BE0686A97FAA7F1B1FA81F101F01F019C
:1010C00006FA01F108422CD0206901287DD128E0E0
:1010D000206990B396FAA6F0B0FA80F048F8206044
:1010E000FFF754FD824607E011E100BFFFF74EFD18
:1010F000A0EB0A00022884D897FAA7F0B0FA80F093
:1011000040F02000400901D0286800E0686A97FAA2
:10111000A7F1B1FA81F101F01F0106FA01F10842CD
:10112000E4D028689BFAABF26169B2FA82F220F04F
:10113000F80091400843286025E0FFE796FAA6F101
:10114000B1FA81F148F82190FFF720FD824605E0D1
:10115000FFF71CFDA0EB0A000228CCD897FAA7F0F5
:10116000B0FA80F040F02000400901D0286800E08B
:10117000686A97FAA7F1B1FA81F101F01F0106FA46
:1011800001F10842E4D1207800076ED5A069B8B318
:1011900096FAA6F0B0FA80F008EB8000C0F8806400
:1011A000FFF7F4FC824605E0FFF7F0FCA0EB0A0035
:1011B0000228A0D897FAA7F0B0FA80F040F06000BB
:1011C000B6EB501F02D128680CE062E197FAA7F055
:1011D000B0FA80F040F06000B7EB501F01D1286AF0
:1011E00000E0686A97FAA7F1B1FA81F101F01F01F6
:1011F00006FA01F21042D7D00120FFF719FB34E0C4
:10120000FFE796FAA6F1B1FA81F108EB8101C1F886
:101210008094FFF7BBFC824606E000BFFFF7B6FCF8
:10122000A0EB0A00022872D897FAA7F0B0FA80F073
:1012300040F06000B6EB501F01D128680BE097FA30
:10124000A7F0B0FA80F040F06000B7EB501F01D17A
:10125000286A00E0686A97FAA7F1B1FA81F101F013
:101260001F0106FA01F21042D8D12078400765D557
:10127000E86940F08050E861E869DFF8CCB000F040
:1012800080500090DBF8001041F48071CBF8001022
:10129000FFF77CFC824605E0FFF778FCA0EB0A0034
:1012A000642834D8DBF80000C005F5D5E0680128D3
:1012B0000AD008B1052813D0286A20F0010028625E
:1012C000286A20F0040002E0286A40F00100286249
:1012D000E06841F2883B90B3FFF758FC82460BE090
:1012E000286A40F004002862EEE700BFFFF74EFCDA
:1012F000A0EB0A0159450AD897FAA7F0B0FA80F096
:1013000040F04000B6EB501F02D128680CE0A3E08B
:1013100097FAA7F0B0FA80F040F04000B7EB501F0A
:1013200001D1286A00E0686A97FAA7F1B1FA81F161
:1013300001F01F0206FA02F10842D7D031E005E0C1
:10134000001002400000424200700040FFF71EFC07
:10135000824605E0FFF71AFCA0EB0A0159457BD84D
:1013600097FAA7F0B0FA80F040F04000B6EB501FBB
:1013700001D128680BE097FAA7F0B0FA80F040F0AE
:101380004000B7EB501F01D1286A00E0686A97FA65
:10139000A7F1B1FA81F101F01F0206FA02F1084249
:1013A000D8D1E06980B36968C1F38101022970D0A6
:1013B0004FF080714F000228484609D091FAA1F100
:1013C000B1FA81F148F82100FFF7E0FB044669E03B
:1013D0008A4691FAA1F1B1FA81F1C14648F821009B
:1013E000FFF7D4FB804605E0FFF7D0FBA0EB080039
:1013F000022854D897FAA7F0B0FA80F040F0200005
:10140000400902D0286801E061E0686A97FAA7F114
:10141000B1FA81F101F01F0106FA01F10842E3D1AE
:10142000206AB0F5803F05D16868A16820F40030DB
:1014300008436860D4E908010843696821F474111D
:10144000084368609AFAAAF0B0FA80F049F8206080
:10145000FFF79CFB044606E021E000BFFFF796FB88
:10146000001B02281BD897FAA7F0B0FA80F040F0D2
:101470002000400901D0286800E0686A97FAA7F1C7
:10148000B1FA81F101F01F0106FA01F10842E5D03D
:101490001DE01EE0FFF77AFB001B022802D90320A3
:1014A000BDE8F88F97FAA7F0B0FA80F040F020007E
:1014B000400901D0286800E0686A97FAA7F1B1FAFC
:1014C00081F101F01F0106FA01F10842E2D100208A
:1014D000E6E70120E4E7704708B501684A68D243AF
:1014E000520609D48A68D243D20705D18A68D2430A
:1014F000520601D5816C08E04A68D243120608D42E
:101500008A68D243920704D4C16C01B05DF804EB41
:1015100008474A68D243920635D48A68D243D20635
:1015200006D4426D42F0020242656FF010028A60FA
:1015300001688A68D243920609D4426D42F00102E2
:1015400042658A680A6822F040020A6000920168D7
:101550008A68D24352060AD490F85120122A06D043
:10156000426D42F004024265CA688A680092426D88
:10157000002A08D04A6822F0E0024A60012180F87F
:101580005110FFF7A8FF08BD10B5040003D094F870
:10159000510010B104E0012010BD204600F038F8E1
:1015A000022084F851002068016821F040010160A8
:1015B000D4E901010843D4E90312114308436169E6
:1015C0000843218B01F400710843E1690843216A53
:1015D0000843A16A084321680860A069042101EA60
:1015E0001040616A0843216848602168E06A086128
:1015F0002068C16921F40061C161044900200870BC
:101600006065012084F85100002010BD1800002002
:1016100010B50068164986B0884226D11548C169C0
:1016200041F48041C161C069134C00F480400490D2
:101630004FF4A0400090002001900290694620469F
:10164000FFF7C0F94FF420400090022001900320E2
:10165000039069462046FFF7B5F900221146242081
:10166000FFF70AFB2420FFF7FBFA06B010BD0000CD
:101670000038004000100240000C01404FF0E02113
:101680000428086903D020F004000861704740F086
:101690000400FAE7704710B5401EB0F1807F01D317
:1016A000012010BD4FF0E02460610F21601700F0B1
:1016B000DBF90020A06107202061002010BD10B5DB
:1016C000FFF7E8FF10BD704738B5044600680168B1
:1016D000C26811F0010F02F4807204D01AB1E16BFC
:1016E00041F00101E1630168C1F34002416901F089
:1016F000010122B119B1E26B42F00402E263026817
:10170000C2F3800222B119B1E26B42F00202E2633D
:101710000268C2F3C00222B119B1E16B41F00801C5
:10172000E1630168C068C1F3401100F0200019B105
:1017300010B1204600F060FA20680168C068C1F36B
:10174000C01100F0800019B110B1204600F060FB1C
:1017500021680868CA68C0F3801002F040020125C1
:1017600070B16AB1CA68204622F04002CA6094F89B
:101770003910322911D080F8395000BF00F0F5F847
:10178000E06B002808D0206801684068009084F869
:1017900039502046FFF797FF38BD222180F83910D5
:1017A000ECE770B5040004D094F83900002510B1BE
:1017B00006E0012070BD84F83850204600F020F883
:1017C000022084F839002068C16821F40051C1600A
:1017D000204600F065FA2068016921F4904101611A
:1017E0002068416921F02A0141612068C16841F403
:1017F0000051C160E563012084F83900002070BD0C
:1018000010B50068154986B0884225D11448816911
:1018100041F4804181618069124C00F48040049061
:101820004FF400700090022001900320039069465D
:101830002046FFF7C7F800212015CDE900010291ED
:1018400069462046FFF7BEF8002211462520FFF723
:1018500013FA2520FFF704FA06B010BD0038014046
:10186000001002400008014090F83930012B01D0EF
:10187000122B2CD139B332B390F83830012B26D04B
:10188000012380F8383081628285C2850021C163DE
:1018900090F83920122A18D05FF0220280F83920FF
:1018A00080F838100168CA6842F48072CA60016822
:1018B0004A6942F001024A610068C16841F02001B2
:1018C000C16000207047012070473222E6E7022005
:1018D00070470000064A10B55168044609B11078F7
:1018E00088472046BDE8104001220149FFF7BCBFF0
:1018F0000400002010B5002806D0044901224860E9
:101900000348FFF7B1FF012010BD000004000020D4
:101910007C00002090F83930012B01D0222B22D1FD
:10192000E9B1E2B190F83830012B1CD0012380F8E6
:10193000383001628284C2840021C16390F839206A
:10194000222A0ED05FF0120280F8392080F8381079
:101950000068C16841F08001C1600020704701202B
:1019600070473222F0E7022070477047FEE7000020
:1019700070B51B4886B0816941F0080181618169B9
:1019800001F008010491816941F0040181618069DD
:10199000144E00F004004FF4006504900022294624
:1019A0003046FFF7EDF8681000900F480124CDE9AC
:1019B000010469463046FFF705F80220CDE90054DE
:1019C000039069463046FEF7FDFF002211462820AD
:1019D000FFF752F92820FFF743F906B070BD000069
:1019E00000100240000C0140000021100E4810B50C
:1019F0000C4901604FF48271416000218160C16037
:101A0000016141618161C1610162416281620A21BA
:101A1000C162FFF7B9FD002803D0BDE81040FEF712
:101A2000EFBD10BD00380040240000200C4810B568
:101A30000A4901604FF4E1314160002181600C22CC
:101A4000C160C0E904128161C161FFF7AAFE0028EC
:101A500003D0BDE81040FEF7D3BD10BD00380140F3
:101A60007C000020FEE770470907090E002806DA0F
:101A700000F00F0000F1E02080F8141D704700F125
:101A8000E02080F8001470477047017881720021CF
:101A90000170032180F8C414704700000148FFF76B
:101AA0001BBD00002400002038B50C460546FEF79B
:101AB00069FF0A4A01206946506000201060C2E9AF
:101AC00002541046FEF7C0FE18B1FEF711FF0020C9
:101AD00038BDFEF70DFF012038BD00004C1400207A
:101AE00010B5002304E000BF10F8014BCC545B1C80
:101AF0009342F9D310BD2DE9F04117460D468046BB
:101B0000FEF740FF0126002410E008EB040100234B
:101B100001202A68FEF7F6FE08B1002608E02988B1
:101B200038F804008142F8D1A41CAD1CBC42ECD3AF
:101B3000FEF7DEFE3046BDE8F081704710B5FFF7D6
:101B40002BF8BDE81040FFF7BABD30B58FB00225C5
:101B50000120049000951020059000244FF42010DF
:101B6000CDE9084007956846FFF7F6F900B1FEE7B2
:101B70000F20CDE90A054FF48060CDE90C4001212A
:101B80000AA80E94FFF7AAF800B1FEE7FFF76AF97A
:101B90004FF47A71B0FBF1F0FFF77DFD0420FFF701
:101BA0006DFD00221146501EFFF766F80FB030BDE4
:101BB0000D48016841F00101016041680B4A114084
:101BC000416001680A4A11400160016821F48021E6
:101BD0000160416821F4FE0141604FF41F01816002
:101BE0000449C00308607047001002400000FFF87D
:101BF000FFFFF6FE08ED00E010B590F8391022293D
:101C000003D0322901D0022010BD8168B1F5805F78
:101C100011D00169002901681FD0496801F07F03D4
:101C2000816A4A1C82620B70C18D491E0904090C2D
:101C3000C18518D030E00269816A002A02685268C2
:101C400005D0D2B20A80816A491C8162ECE7C2F3F6
:101C500008020A80816A891CF7E74A68816A4B1C7E
:101C600083620A70E0E70168CA6822F02002CA6055
:101C700090F83910322911D00168CA6822F48072B4
:101C8000CA6001684A6922F001024A615FF00101FD
:101C900080F83910FFF71EFE002010BD1221F7E773
:101CA0002DE9F041044600680169E26821F44051E1
:101CB000114301612169A0680843616908432168F3
:101CC000CA6841F20C639A430243CA6020684169C2
:101CD000A26921F44071114341614C492068642597
:101CE000322688423CD1FFF7DBF800EBC00101EB64
:101CF000001061688900B0FBF1F7FFF7D1F800EB45
:101D0000C00101EB00106168B0468900B0FBF1F042
:101D1000B0FBF5F06FF01801484307EB800106EBCC
:101D20000110B0FBF5F000F0F006FFF7B9F800EB9A
:101D3000C00101EB001061688900B0FBF1F0B0FB5D
:101D4000F5F006EB0016FFF7ABF800EBC00101EB76
:101D5000001061688900B0FBF1F7FFF7A1F83BE0E4
:101D6000FFF786F800EBC00101EB00106168890005
:101D7000B0FBF1F7FFF77CF800EBC00101EB0010BE
:101D80006168B0468900B0FBF1F0B0FBF5F06FF090
:101D90001801484307EB800106EB0110B0FBF5F09A
:101DA00000F0F006FFF764F800EBC00101EB001053
:101DB00061688900B0FBF1F0B0FBF5F006EB0016AE
:101DC000FFF756F800EBC00101EB001061688900D5
:101DD000B0FBF1F7FFF74CF800EBC00101EB00108E
:101DE00061688900B0FBF1F0B0FBF5F06FF018010D
:101DF000484307EB800108EB0110B0FBF5F02168C8
:101E000000F00F0030448860BDE8F08100380140E8
:101E100090F83910122903D0322901D002207047DE
:101E20008168B1F5805F016A0BD04A1C02620268CA
:101E300009785160C18C491E0904090CC1840ED077
:101E400017E009880268C1F308015160016900299F
:101E5000016A02D0491C0162ECE7891CFBE70168BA
:101E6000CA6822F08002CA600068C16841F040017F
:101E7000C1600020704700000148FFF725BC00004A
:101E80007C000020FEE702E008C8121F08C1002AFB
:101E9000FAD170477047002001E001C1121F002AEB
:101EA000FBD17047D0E901121144B2F5405F05D370
:101EB000B1F5803F02D8007B642801D9002070472B
:101EC00001207047FEF770FEFFF73FFEFFF750FD61
:101ED000FFF7ACFDFFF78AFDFEF780F9FEF778FA11
:101EE000FCE70000000000000000010203040607F8
:101EF00008090000000001020304000000000000C7
:101F0000963007772C610EEEBA51099919C46D0706
:101F10008FF46A7035A563E9A395649E3288DB0E61
:101F2000A4B8DC791EE9D5E088D9D2972B4CB60944
:101F3000BD7CB17E072DB8E7911DBF906410B71D21
:101F4000F220B06A4871B9F3DE41BE847DD4DA1A5A
:101F5000EBE4DD6D51B5D4F4C785D38356986C138B
:101F6000C0A86B647AF962FDECC9658A4F5C011404
:101F7000D96C0663633D0FFAF50D088DC8206E3BE2
:101F80005E10694CE44160D5727167A2D1E4033CF4
:101F900047D4044BFD850DD26BB50AA5FAA8B5351B
:101FA0006C98B242D6C9BBDB40F9BCACE36CD8320A
:101FB000755CDF45CF0DD6DC593DD1ABAC30D926B1
:101FC0003A00DE518051D7C81661D0BFB5F4B421B4
:101FD00023C4B3569995BACF0FA5BDB89EB80228B1
:101FE0000888055FB2D90CC624E90BB1877C6F2F36
:101FF000114C6858AB1D61C13D2D66B69041DC7631
:102000000671DB01BC20D2982A10D5EF8985B17109
:102010001FB5B606A5E4BF9F33D4B8E8A2C90778B8
:1020200034F9000F8EA8099618980EE1BB0D6A7F4F
:102030002D3D6D08976C6491015C63E6F4516B6B08
:1020400062616C1CD83065854E0062F2ED95066CBD
:102050007BA5011BC1F4088257C40FF5C6D9B06532
:1020600050E9B712EAB8BE8B7C88B9FCDF1DDD628F
:10207000492DDA15F37CD38C654CD4FB5861B24DF5
:10208000CE51B53A7400BCA3E230BBD441A5DF4ABF
:10209000D795D83D6DC4D1A4FBF4D6D36AE9694382
:1020A000FCD96E34468867ADD0B860DA732D04442D
:1020B000E51D03335F4C0AAAC97C0DDD3C71055058
:1020C000AA41022710100BBE86200CC925B56857FF
:1020D000B3856F2009D466B99FE461CE0EF9DE5E48
:1020E00098C9D9292298D0B0B4A8D7C7173DB359F9
:1020F000810DB42E3B5CBDB7AD6CBAC02083B8ED8A
:10210000B6B3BF9A0CE2B6039AD2B1743947D5EA96
:10211000AF77D29D1526DB048316DC73120B63E3C5
:10212000843B64943E6A6D0DA85A6A7A0BCF0EE424
:102130009DFF099327AE000AB19E077D44930FF0DF
:10214000D2A3088768F2011EFEC206695D5762F7D6
:10215000CB67658071366C19E7066B6E761BD4FE13
:10216000E02BD3895A7ADA10CC4ADD676FDFB9F9F0
:10217000F9EFBE8E43BEB717D58EB060E8A3D6D6B2
:102180007E93D1A1C4C2D83852F2DF4FF167BBD1E0
:102190006757BCA6DD06B53F4B36B248DA2B0DD8E3
:1021A0004C1B0AAFF64A0336607A0441C3EF60DF86
:1021B00055DF67A8EF8E6E3179BE69468CB361CB6F
:1021C0001A8366BCA0D26F2536E2685295770CCC94
:1021D00003470BBBB91602222F260555BE3BBAC5D5
:1021E000280BBDB2925AB42B046AB35CA7FFD7C2C6
:1021F00031CFD0B58B9ED92C1DAEDE5BB0C2649BB7
:1022000026F263EC9CA36A750A936D02A906099CE9
:102210003F360EEB8567077213570005824ABF955C
:10222000147AB8E2AE2BB17B381BB60C9B8ED292DF
:102230000DBED5E5B7EFDC7C21DFDB0BD4D2D38636
:1022400042E2D4F1F8B3DD686E83DA1FCD16BE81A9
:102250005B26B9F6E177B06F7747B718E65A08887A
:10226000706A0FFFCA3B06665C0B0111FF9E658F0B
:1022700069AE62F8D3FF6B6145CF6C1678E20AA0B5
:10228000EED20DD75483044EC2B30339612667A73B
:10229000F71660D04D476949DB776E3E4A6AD1AE8A
:1022A000DC5AD6D9660BDF40F03BD83753AEBCA919
:1022B000C59EBBDE7FCFB247E9FFB5301CF2BDBD86
:1022C0008AC2BACA3093B353A6A3B4240536D0BA8F
:1022D0009306D7CD2957DE54BF67D9232E7A66B32C
:1022E000B84A61C4021B685D942B6F2A37BE0BB4D9
:1022F000A18E0CC31BDF055A8DEF022D1C23000895
:102300000000002024000000861E00084023000872
:10231000240000203C180000961E000800A24A0479
:1023200000000000000000000000000000000000AD
:10233000000000000000000000000000000000009D
:04000005080000ED02
:00000001FF
