:020000040800F2
:10000000801B00207D010008810100088301000899
:100010008501000887010008890100080000000030
:100020000000000000000000000000008B0100083C
:100030008D010008000000008F01000891010008F8
:100040009301000893010008930100089301000840
:100050009301000893010008930100089301000830
:100060009301000893010008930100089301000820
:100070009301000893010008930100089301000810
:100080009301000893010008930100089301000800
:1000900093010008930100089301000893010008F0
:1000A00093010008930100089301000893010008E0
:1000B00093010008930100089301000893010008D0
:1000C00093010008930100089301000893010008C0
:1000D00093010008490800089301000893010008F3
:1000E00093010008930100089301000893010008A0
:1000F0009301000893010008930100089301000890
:10010000930100089301000893010008930100087F
:10011000930100089301000893010008930100086F
:10012000930100089301000893010008930100085F
:10013000DFF80CD000F092FD0048004745010008B0
:10014000801B00204FF4E131082000F094FB0A4CA2
:10015000002504F10C0600F028F894F8C4040128E6
:10016000F9D1304600F046F884F8C454F3E701466C
:10017000014800F01EBA00000C00002005480047AE
:10018000FEE7FEE7FEE7FEE7FEE7FEE7FEE7FEE747
:10019000FEE7FEE731010008844A10700120C2F832
:1001A000B4045170104600F067BA10B5804C207846
:1001B00060B1012818D16068401E606014D17B488E
:1001C00074388068BDE8104000F0B0BA77487438E1
:1001D00000F0CFFA012805D17448743800F090FA85
:1001E000012802D00220207010BD0120207071482B
:1001F000606010BD2DE9F0476D496C4F02220A7016
:10020000743F037807F10D09A7F11004082B79D288
:10021000DFE803F09B04074F9B7B9DB30021012087
:10022000C0E0624D64A1A81C2A7008226A7000F028
:1002300011FC6878401CC5F8B404A5F1740000F006
:1002400098FA00266C1C4FF00108012805D1A4F192
:10025000750000F055FA012813D0D5F8B4040655FE
:10026000D5F8B404401CC5F8B40400F80480D5F8EF
:10027000B404401CC5F8B404BDE8F0474B4800F096
:10028000FBB9D5F8B4043A7B49460255D5F8B40415
:10029000401CC5F8B404204405F2B44500F0DAFB74
:1002A000397B28680844286006552868401C286067
:1002B000E2E7D0F80140002614B1D0F8055009E07B
:1002C0003A48743800F055FA012801D0012603E0BD
:1002D000D7E9014505F100653948854200D300267C
:1002E00000210320FFF758FF002E2ED1A10AA00500
:1002F00000D0491C284600F0EAF8012803D001216B
:1003000004204FE021E00021FAE72849D0F801203D
:1003100084394A61D0F805200A61D0F809208A6141
:10032000427B00F10E013A73484600F093FB1F48F0
:10033000743800F000FA012802D00121052031E0D4
:1003400000210520FFF728FF2760BDE8F087D0F8DF
:100350000550D0F80110A16000F10902D0F8B434C2
:10036000124829468438083B00F022FA012802D0BE
:100370000121062016E00021FBE70C48743800F04C
:10038000F8F901280CD10948743800F0B9F90128AE
:1003900006D100210720FFF7FFFEB86800F0C6F97C
:1003A00001210720BDE8F047F6E6000058050020CF
:1003B00000000020FFFF0F00312E302E302E3000C5
:1003C000902D00085C485B4941605C49416000BF7A
:1003D00000BF00BF70475848016941F080010161CA
:1003E00070475548C068C10701D0012070474107D8
:1003F00001D502207047C00601D5032070470020B8
:10040000704700B5024603E0FFF7EBFF012803D178
:10041000521E92B2F8D2042000BD30B5044645F613
:10042000FF752846FFF7EDFF002812D1424B1869EF
:1004300040F0020018615C61186940F040001861EA
:100440002846FFF7DEFF012803D0196921F00201D9
:10045000196130BD30B504460B46FF20FFF7D1FFD0
:10046000002811D1344D286940F001002861238013
:10047000FF20FFF7C6FF18B1296921F001012961AA
:100480002188994200D0022030BD00887047F0B525
:1004900016460F460546FFF795FF002407E037F89C
:1004A00014102846FFF7D6FF641CA4B2AD1CB4425A
:1004B000F5D3BDE8F0408EE710B5002304E010F856
:1004C000014BCC545B1C9BB29342F8D310BD30B5AA
:1004D000044600EB8125FFF775FF07E02046FFF794
:1004E0009CFF08B1002030BD04F58064AC42F5D912
:1004F000FFF771FF012030BDF0B517460E460546E7
:10050000B0F1006F03D30E49E819884201D90020E9
:10051000F0BD00240AE03119305D497841EA00213C
:100520002846FFF797FFA41CA4B2AD1CBC42F2D32F
:100530000120F0BD2301674500200240AB89EFCDCB
:10054000000001080178817200210170032180F808
:10055000C414704710B502460078D2F8B434EB30BA
:10056000184400EB1320C0B2002104E05418491CC9
:1005700064782044C0B28B42F8D810BD70B5002416
:1005800005462046EF2611E01378EB2B03D0302BE5
:1005900001D0EF2B04D1401C01F8016B80B2EF3B7E
:1005A000401C521C01F8013B80B2641CAC42EBD3EE
:1005B00070BD70B500220446EB290FD0607AEF2998
:1005C00014D0EF2816D00D46237802210120062BE7
:1005D0000FD2DFE803F013191D303E4B20780D4693
:1005E0000028F1D02046FFF7ADFFEDE7EF2801D05E
:1005F000617270BDEF31CDB26272E5E7EB2DF8D1DB
:10060000207084F8C41470BD25732170626070BDC1
:10061000616861B1D4F8C0044FF0030150EA0520CD
:10062000C4F8C00421706260F1D104200FE0C4F866
:10063000C054606070BD616804F10D000D546068C5
:10064000401C6060D4F8C014884208D270BD20708D
:1006500070BD04F10C00FFF77DFFA84202D12078A5
:10066000401CF4E72046BDE870406BE7302DEFD129
:1006700084F8C404227070BDF8B504460020154DFE
:100680008DF80000EB202870691C22460120FFF73E
:1006900075FF461CA91904F2B4420220FFF76EFF51
:1006A0000644A919621CD4F8B404FFF767FF064496
:1006B0002046FFF74FFF8DF80000A9196A46012078
:1006C000FFF75CFF8119302068542846491C00F070
:1006D000C6F8F8BD100A002030B54FF0FF330022F5
:1006E000064D07E0845C5C40E4B2521C55F824409F
:1006F00084EA13238A42F5D3D84330BDA00C000806
:1007000010B5044600F084F800280CD0D4E901109C
:1007100000F10060FFF7E0FF4549086020680968C4
:10072000884201D1012010BD002010BD4168006841
:1007300080F30888084710B59EB0044600F068F8BA
:10074000002814D074212046FFF7C6FF00907422C1
:10075000214601A800F07EF9364C01212046FFF722
:10076000B6FE3C2269462046FFF791FE01201EB0EE
:1007700010BD30B59FB00446782269462D48FFF77A
:100780009BFE74216D4601A8FFF7A6FF00998842E1
:1007900004D1281D00F03CF8012802D000201FB031
:1007A00030BD7422291D204600F054F90120F6E7DF
:1007B00070B51D4613460446B1B1E268481E824238
:1007C00019D1E160A068401E81424FEAC57011D185
:1007D00098B1012000EB550082B219466068FFF71E
:1007E00056FEAD1C60680FE02068806800F1006074
:1007F0006060E6E708B1002070BDC5F34F021946FE
:100800006068FFF744FE606828446060012070BDA6
:10081000D0E901210A44B1F5405F05D3B2F5803F2C
:1008200002D8007B642801D900207047012070475E
:1008300008000020002C000839490A885206FCD51F
:100840003749091D0880704735480088800605D55E
:100850003348001D0088C0B2FFF789BC704730B52F
:100860000D460446002303E0E05CFFF7E5FF5B1C58
:10087000AB42F9D330BD70B50546080100F09EF9D2
:1008800004462848684300F099F9214600F04CF9E5
:10089000054600F098F984B2204600F08FF9294609
:1008A00000F03FF9042100F07DF900F08CF94FF6DB
:1008B000FF7101EA04110A181B48816941F0040123
:1008C0008161816941F48041816118490B6823F499
:1008D0007F630B600B6843F40B630B60C16841F4EA
:1008E0008041C160C16821F48041C1600C4808307A
:1008F0000280001D018842F20C0211430180018830
:1009000041F480710180018841F020010180BDE83F
:100910007040022325220321084600F01DB8000084
:100920000038014040420F0000100240040801401E
:10093000404A1140014340480160704707213E4A48
:100940008143121D10684FF6FF0318403B4B1843BC
:1009500040EA012010607047F0B5054614460F4686
:100960001E461846FFF7EAFFC6F1040085400F2235
:10097000F2403A402A436009800000F1E020D0F8BC
:10098000001104F01F050123AB401943C0F800110A
:1009900004F1E02494F8000440EA021084F8000412
:1009A000F0BD70B5264D8B088C07AE69240F46F05C
:1009B0000106AE619D00234B2B449E680F25A54088
:1009C000AE439E609D68A04005439D601E4B1C6821
:1009D0000120884004431C60D10704D01A490C311F
:1009E0000B6803430B60910704D5174A083211685E
:1009F0000143116070BD124800210161C1601422E1
:100A000042618161C161026842F001020260426894
:100A10000E4B1A40426002680D4B1A400260026899
:100A200022F480220260426822F4FE024260816069
:100A3000C0037DE780FFFF1F08ED00E00000FA051E
:100A40000010024000000140000401400000FFF8D7
:100A5000FFFFF6FE40EA01039B0703D009E008C947
:100A6000121F08C0042AFAD203E011F8013B00F873
:100A7000013B521EF9D27047F0B480EA0102D40F54
:100A80004200B2EB410F02D20246084611464A002C
:100A900042D0C30DDDB2C1F3C752AD1A202D35DAF5
:100AA000C1F3160141F4000204B15242C5F120061F
:100AB00002FA06F12A411044B3EBD05F23D0C4B14F
:100AC000012DA0EBC35009DCF0BC4FF0004202EA5C
:100AD000C352DBB200F5000000F092B8400000F114
:100AE000807000EBC350A0F1807040EAD1704900E3
:100AF00009E0490841EAC071A0EBC35000F50000CD
:100B0000400800EBC350F0BC00F071B86142012214
:100B100002EB4101001BF6E7F0BC704781F0004199
:100B2000AAE780F00040A7E730B480EA010202F0B3
:100B3000004530F0004221F0004013D090B1C30DC9
:100B4000D40DC2F31601C0F31600E41A41F40001FB
:100B500040F400027D34914201D3641C00E049005E
:100B6000002C02DA30BC002070474FF40000002354
:100B7000914201D3891A034340084FEA4101F7D15A
:100B800051B1914202D14FF0004105E002D24FF045
:100B9000010101E06FF0010103EBC450284430BCB7
:100BA00000F025B8420005D0C0F3C752524291422E
:100BB00001DC0020704700EBC150704796230022F3
:100BC000114600F01DB820F00040C10DC0F3160022
:100BD00040F400007F2901DA00207047962903DCE9
:100BE000C1F19601C8407047963988407047002986
:100BF000A8BF7047401C490008BF20F001007047A3
:100C000010B4B0FA80FC00FA0CF050EA010404BF02
:100C100010BC704749B1CCF1200421FA04F411FA58
:100C20000CF118BF012121430843A3EB0C01CB1D9C
:100C30004FEA00614FEA102042BF002010BC70470D
:100C400000EBC35010440029A4BF10BC7047401CE7
:100C5000490008BF20F0010010BC7047064C074D4A
:100C600006E0E06840F0010394E80700984710347C
:100C7000AC42F6D3FFF760FAA0100008C0100008DD
:100C800002E008C8121F08C1002AFAD17047704755
:100C9000002001E001C1121F002AFBD170470000B3
:100CA00000000000963007772C610EEEBA510999CA
:100CB00019C46D078FF46A7035A563E9A395649E26
:100CC0003288DB0EA4B8DC791EE9D5E088D9D2974A
:100CD0002B4CB609BD7CB17E072DB8E7911DBF90A6
:100CE0006410B71DF220B06A4871B9F3DE41BE84CA
:100CF0007DD4DA1AEBE4DD6D51B5D4F4C785D38326
:100D000056986C13C0A86B647AF962FDECC9658AC9
:100D10004F5C0114D96C0663633D0FFAF50D088D25
:100D2000C8206E3B5E10694CE44160D5727167A2C9
:100D3000D1E4033C47D4044BFD850DD26BB50AA525
:100D4000FAA8B5356C98B242D6C9BBDB40F9BCAC49
:100D5000E36CD832755CDF45CF0DD6DC593DD1ABA5
:100D6000AC30D9263A00DE518051D7C81661D0BFC9
:100D7000B5F4B42123C4B3569995BACF0FA5BDB825
:100D80009EB802280888055FB2D90CC624E90BB1C9
:100D9000877C6F2F114C6858AB1D61C13D2D66B625
:100DA0009041DC760671DB01BC20D2982A10D5EF89
:100DB0008985B1711FB5B606A5E4BF9F33D4B8E8E5
:100DC000A2C9077834F9000F8EA8099618980EE189
:100DD000BB0D6A7F2D3D6D08976C6491015C63E6E5
:100DE000F4516B6B62616C1CD83065854E0062F209
:100DF000ED95066C7BA5011BC1F4088257C40FF565
:100E0000C6D9B06550E9B712EAB8BE8B7C88B9FC88
:100E1000DF1DDD62492DDA15F37CD38C654CD4FBE4
:100E20005861B24DCE51B53A7400BCA3E230BBD488
:100E300041A5DF4AD795D83D6DC4D1A4FBF4D6D3E4
:100E40006AE96943FCD96E34468867ADD0B860DA88
:100E5000732D0444E51D03335F4C0AAAC97C0DDDE4
:100E60003C710550AA41022710100BBE86200CC908
:100E700025B56857B3856F2009D466B99FE461CE64
:100E80000EF9DE5E98C9D9292298D0B0B4A8D7C788
:100E9000173DB359810DB42E3B5CBDB7AD6CBAC0E4
:100EA0002083B8EDB6B3BF9A0CE2B6039AD2B17400
:100EB0003947D5EAAF77D29D1526DB048316DC735C
:100EC000120B63E3843B64943E6A6D0DA85A6A7A00
:100ED0000BCF0EE49DFF099327AE000AB19E077D5C
:100EE00044930FF0D2A3088768F2011EFEC2066980
:100EF0005D5762F7CB67658071366C19E7066B6EDC
:100F0000761BD4FEE02BD3895A7ADA10CC4ADD67FF
:100F10006FDFB9F9F9EFBE8E43BEB717D58EB0605B
:100F2000E8A3D6D67E93D1A1C4C2D83852F2DF4FFF
:100F3000F167BBD16757BCA6DD06B53F4B36B2485B
:100F4000DA2B0DD84C1B0AAFF64A0336607A0441FF
:100F5000C3EF60DF55DF67A8EF8E6E3179BE69465B
:100F60008CB361CB1A8366BCA0D26F2536E268527F
:100F700095770CCC03470BBBB91602222F260555DB
:100F8000BE3BBAC5280BBDB2925AB42B046AB35CFF
:100F9000A7FFD7C231CFD0B58B9ED92C1DAEDE5B5B
:100FA000B0C2649B26F263EC9CA36A750A936D023F
:100FB000A906099C3F360EEB85670772135700059B
:100FC000824ABF95147AB8E2AE2BB17B381BB60CBF
:100FD0009B8ED2920DBED5E5B7EFDC7C21DFDB0B1B
:100FE000D4D2D38642E2D4F1F8B3DD686E83DA1F3F
:100FF000CD16BE815B26B9F6E177B06F7747B7189B
:10100000E65A0888706A0FFFCA3B06665C0B01113E
:10101000FF9E658F69AE62F8D3FF6B6145CF6C169A
:1010200078E20AA0EED20DD75483044EC2B303393E
:10103000612667A7F71660D04D476949DB776E3E9A
:101040004A6AD1AEDC5AD6D9660BDF40F03BD837BE
:1010500053AEBCA9C59EBBDE7FCFB247E9FFB5301A
:101060001CF2BDBD8AC2BACA3093B353A6A3B4243E
:101070000536D0BA9306D7CD2957DE54BF67D9239A
:101080002E7A66B3B84A61C4021B685D942B6F2A3E
:1010900037BE0BB4A18E0CC31BDF055A8DEF022D9A
:1010A000C0100008000000200C000000800C0008A8
:1010B000CC1000080C000020741B0000900C0008ED
:0C10C00000000000000000000000000024
:0400000508000131BD
:00000001FF
